:100000000A128A11E52F00308A000408840A820748
:10001000003450344934433431343634463438347F
:1000200037343734413420342B3420344C34433487
:10003000443400344D3450344C3441344234203450
:08004000583443343834003415
:100BB200003412347A340034700883120313A00014
:100BC2007108A1007208A7007308A6007408A500A6
:100BD2007508A4007608A3007708A2000800F700B1
:100BE2007708F60004300310F60CFF3E031DF42DC7
:100BF20076080A128A1199260A128A1177080A12AD
:100C02008A1199260800F0018312031327080A1299
:100C12008A116A260A128A1101300A128A11F025F3
:100C22000A128A110630F9003030F800F80B172E3C
:100C3200F90B172E00000800F00183120313260897
:100C42000A128A116A260A128A11272EF001F00A64
:100C52008312031326080A128A116A260A128A11BB
:100C6200322EF0018312031326080A128A116A2611
:100C72000A128A114230F400F40B3D2E00000800E3
:100C8200FA00F001F00A8312031327080A128A11EC
:100C92006A260A128A11F90179087A0784000A126F
:100CA2008A1103200A128A11003A031908007908EE
:100CB2007A0784000A128A1103200A128A110A1280
:100CC2008A11F0250A128A110130F8007808F90712
:100CD2004D2EF30070080319832E0130F100730AC0
:100CE200742E0310F10DFF3E031D722E7108F200E7
:100CF20083120313200884008317211C83137208B4
:100D0200800408000130F100730A892E0310F10DEE
:100D1200FF3E031D872E7108FF3AF2008312031370
:100D2200200884008317211C8313720880050800A1
:100D3200F50075080139F0008312031325080A1221
:100D42008A116A260A128A1175080239F000831282
:100D5200031324080A128A116A260A128A117508D4
:100D62000439F0008312031323080A128A116A2637
:100D72000A128A1175080839F00083120313220837
:100D82000A128A116A260A128A110A128A111D2669
:100D92000800FB00F0018312031327080A128A11CC
:100DA2006A260A128A11ED2E7B087F3E0A128A11E8
:100DB200F02508007B08BF3E0A128A11F0250800C0
:100DC2007B08933E0A128A11F02508007B08D33E65
:100DD2000A128A11F02508007808F900FA017A0847
:100DE200003A0319F52E032F7908013A0319D52E7B
:100DF200033A0319DB2E013A0319E12E073A0319CC
:100E0200E72E032F080083120313880183160313AE
:100E120088010830F0000030F100F201F301F30A1A
:100E22000230F4000330F5000430F6000530F7001C
:100E32000A128A11DD250A128A110230FA001030D4
:100E42000A128A1143270A128A11F801F80A01309C
:100E52000A128A11CA260A128A1101300A128A114A
:100E620041260A128A110230F80001300A128A1150
:100E7200CA260A128A1112300A128A1141260A124D
:100E82008A11422F203083120313AD00F00127088C
:100E92000A128A116A260A128A11F00183120313B6
:100EA20026080A128A116A260A128A11F00183128E
:100EB200031325080A128A116A260A128A11F001FE
:100EC2008312031324080A128A116A260A128A114B
:100ED200F0018312031323080A128A116A260A12E6
:100EE2008A11F0018312031322080A128A116A2658
:100EF2000A128A111530FD004B30FC00BE30FB0097
:100F0200FB0B812FFC0B812FFD0B812F0000023088
:100F12007A02031C8F2F83120313AD1503300A12BA
:100F22008A1199260A128A110D30FC00FB30FB004F
:100F3200FB0B992FFC0B992F9E2F03300A128A115B
:100F420099260A128A118530FB00FB0BA62F03306B
:100F52000A128A1199260A128A114230FB00FB0BEF
:100F6200B02F000002300A128A1199260A128A1141
:100F72004230FB00FB0BBB2F0000831203132D0832
:100F82000A128A11F0250A128A110C300A128A11E9
:100F9200F0250A128A110A128A1104260A128A11EB
:100FA20006300A128A11F0250A128A110630FC0054
:100FB2003030FB00FB0BDB2FFC0BDB2F00000C3077
:100FC20083120313AC0008000A128A11D9250A12EF
:100FD2008A11A8000A128A11DA250A128A11A900B6
:100FE2000A128A11DB250A128A11AA000A128A1130
:0E0FF200DC25AB00AC0183010A128A11042F2A
:08400000FF3FFF3FFF3FFF3FC0
:02400E00323F3F
:00000001FF
