:0400000083EF0DF08D
:101000000048656C6C6F2C20776F726C64210069EE
:09101000203D202530337500005D
:10101A0047C0D9FF48C0DAFFDECFF6FFDDCFF7FFC2
:10102A000800F550250AD8A407D147C0D9FF48C0FF
:10103A00DAFFDE2A000EDD22000E0001616F000ECB
:10104A00606F60C064F062696369000E586E000EDA
:10105A000DD00001648347C0D9FF48C0DAFFDE2AF9
:10106A00000EDD221AD0000E586E010E576E15D0F2
:10107A0047C0D9FF48C0DAFFDECFF6FFDDCFF7FF62
:10108A000800F5504B6E4C6A4C50000AD8A4EBD7B6
:10109A004B50300AD8B4DDD7E6D757505810D8B4D9
:1010AA00E7D747C0D9FF48C0DAFFDECFF6FFDDCF6A
:1010BA00F7FF0800F5502A0AD8A424D047C0D9FF60
:1010CA0048C0DAFFDE2A000EDD2249C0D9FF4AC035
:1010DA00DAFFDFCF4BF0020EDE26DFCF4CF0000E38
:1010EA00DD224BC0D9FF4CC0DAFFDECF60F0DDCF86
:1010FA0061F0000161AF33D06481606D611FD8B0C7
:10110A00612B2DD047C0D9FF48C0DAFFDECF07F0E8
:10111A00DDCF08F008EC0AF007C060F008C061F003
:10112A0007D047C0D9FF48C0DAFFDE2A000EDD2209
:10113A0047C0D9FF48C0DAFFDECFF6FFDDCFF7FFA1
:10114A000800F5CF4BF0D00E4B244C6E4D6AFF0EC3
:10115A004D224D5004E10A0E4C5CD8A0E2D747C09C
:10116A00D9FF48C0DAFFDECF59F0DDCF5AF059C0B7
:10117A00F6FF5AC0F7FF0800F550750AD8A454D0F4
:10118A0049C0D9FF4AC0DAFFDFCF4BF0020EDE2694
:10119A00DFCF4CF0000EDD224BC0D9FF4CC0DAFF86
:1011AA00DECF4DF0DDCF4EF04DC04FF04EC050F0C7
:1011BA00516A526A536A546A556A566A010E592428
:1011CA004B6E000E5A204C6E47C0D9FF48C0DAFF5A
:1011DA004BC0DEFF4CC0DDFF17D045C025F046C02E
:1011EA0026F04FC027F050C028F051C029F052C055
:1011FA002AF053C02BF054C02CF055C02DF056C025
:10120A002EF034EC09F0120059C0F6FF5AC0F7FF6D
:10121A000800F5504B6E4C6A4C50000AD8A404D012
:10122A004B50750AD8B4D9D747C0D9FF48C0DAFF9E
:10123A00DE2A000EDD22120047C0D9FF48C0DAFFBD
:10124A00DECFF6FFDDCFF7FF0800F5500A6E0B6A16
:10125A0045C00CF046C00DF06DEC0CF0E5D700016E
:10126A0063AF649363BF05D0635108E16205D8B0E8
:10127A0005D0000E386E010E376E04D062C037F00A
:10128A0063C038F060C039F061C03AF027C03BF063
:10129A0028C03CF029C03DF02AC03EF02BC03FF0E8
:1012AA002CC040F02DC041F02EC042F0000E446E1A
:1012BA001F0E436E000E856F76D04306D8A04406F3
:1012CA00660E4324D96E000E4420DA6E3BC001F04C
:1012DA003CC002F03DC003F03EC004F03FC005F040
:1012EA0040C006F041C007F042C008F00A0E096E7D
:1012FA00000E0A6E000E0B6E000E0C6E000E0D6EC6
:10130A00000E0E6E000E0F6E000E106ED5EC0BF076
:10131A0001C02FF002C030F003C031F004C032F037
:10132A0005C033F006C034F007C035F008C036F007
:10133A002F50300FDF6E3706D8A038063906D8A0EE
:10134A003A063BC001F03CC002F03DC003F03EC08B
:10135A0004F03FC005F040C006F041C007F042C0AB
:10136A0008F00A0E096E000E0A6E000E0B6E000ED1
:10137A000C6E000E0D6E000E0E6E000E0F6E000E3D
:10138A00106E6EEC0BF001C03BF002C03CF003C0E3
:10139A003DF004C03EF005C03FF006C040F007C073
:1013AA0041F008C042F043504410D8B41BD03B501F
:1013BA003C103D103E103F10401041104210D8A47E
:1013CA007CD738BE05D0385002E13704D8B075D77B
:1013DA003ABE08D03A5003E13904D8A003D000013C
:1013EA0064B36BD725C01AF026C01BF0660E4324DF
:1013FA001C6E000E44201D6E39C01EF03AC01FF04C
:10140A002CEC0CF01200000E0F6E000E0E6E000E89
:10141A000D6E000E0C6E02D0074A082A07C0F6FFAE
:10142A0008C0F7FF0800F550200AD8B4F5D707C05E
:10143A00F6FF08C0F7FF0800F5CF09F0F70E0924F8
:10144A000A6E0B6AFF0E0B220B500CE1050E0A5CAA
:10145A00D8B008D0E1D7000E0D6E010E0C6E074A07
:10146A00082A2ED007C0F6FF08C0F7FF0800F5507B
:10147A00096E0A6A0A50000AD8A422D009502B0A17
:10148A00D8B4EDD7060AD8B4E6D71AD00EC001F000
:10149A000FC002F0000E046E0A0E036EE4EC0DF0AB
:1014AA0007C0F6FF08C0F7FF0800F550015E000EFE
:1014BA00025A300E01240E6E000E02200F6ECFD794
:1014CA0007C0F6FF08C0F7FF0800F5CF09F0D00EF5
:1014DA0009240A6E0B6AFF0E0B220B5004E10A0E56
:1014EA000A5CD8A0D3D70C500D10D8A40DD00EC0CA
:1014FA0009F00FC00AF0091E0A1E094A0A2A09C081
:10150A0007F00AC008F012000EC007F00FC008F07A
:10151A0012006C0ED36E000E956E000E0F013B6F1B
:10152A00830E016E0F0E026E000E036E010E046E24
:10153A00020E056E030E066E040E076E050E086E89
:10154A001BEC0EF0020E096E100E02EC0BF0010EEF
:10155A00086E010EA3EC0CF04C0E2CEC0EF0430EB0
:10156A002CEC0EF0440E2CEC0EF0330E0001916FB1
:10157A00BB0E906FDF0EE82EFED7902FFCD7912F6F
:10158A00FAD700D009EC0EF0010E086E010EA3EC9A
:10159A000CF0010E086E100E096EFDEC0CF0330E05
:1015AA000001916FBB0E906FDF0EE82EFED7902FD1
:1015BA00FCD7912FFAD700D0000E5F6E020E086E8C
:1015CA00010EA3EC0CF00F0E00018C6F100E8D6F44
:1015DA005FC08EF08F6BD0EC0DF05F285F6E0B0E44
:1015EA000001916F260E906F5D0EE82EFED7902FA8
:1015FA00FCD7912FFAD700D0E1D7200E0C6E000E3F
:10160A00016E00019951D4EC0CF0000E016E00013C
:10161A009851D4EC0CF0000E016E00019751D4ECF5
:10162A000CF0000E016E00019651D4EC0CF0000E85
:10163A00016E00019551D4EC0CF0000E016E000110
:10164A009451D4EC0CF0150E0B6E4B0E0A6EBE0EB6
:10165A00E82EFED70A2EFCD70B2EFAD700D0010EA1
:10166A00096401D00C86030E47EC0DF00D0E0A6ECC
:10167A00FC0EE82EFED70A2EFCD7030E47EC0DF01F
:10168A00850EE82EFED700F0030E47EC0DF0420E51
:10169A00E82EFED700D0020E47EC0DF0420EE82EDF
:1016AA00FED700D00C5037EC0EF00C0E37EC0EF0D3
:1016BA0009EC0EF0060E37EC0EF0060E0A6E300E2E
:1016CA00E82EFED70A2EFCD700D00C0E0001656F5B
:1016DA00120020EE11F0070EDE6AE806FDE209505C
:1016EA000A100B100C100D100E100F101010D8B499
:1016FA0046D0010E196E0AD0D89009360A360B3632
:10170A000C360D360E360F361036192A10AEF4D7AF
:10171A00D890113612361336143615361636173651
:10172A0018360950015C0A5002580B5003580C50E5
:10173A0004580D5005580E5006580F5007581050AF
:10174A000858D8A011D00950015E0A50025A0B500D
:10175A00035A0C50045A0D50055A0E50065A0F508F
:10176A00075A1050085A1180D89010320F320E3290
:10177A000D320C320B320A320932192EC9D711C076
:10178A0001F012C002F013C003F014C004F015C037
:10179A0005F016C006F017C007F018C008F01200CE
:1017AA0009500A100B100C100D100E100F1010100B
:1017BA00D8B43CD0010E116E0AD0D89009360A3638
:1017CA000B360C360D360E360F361036112A10AE81
:1017DA00F4D70950015C0A5002580B5003580C50B8
:1017EA0004580D5005580E5006580F5007581050FF
:1017FA000858D8A010D00950015E0A50025A0B505E
:10180A00035A0C50045A0D50055A0E50065A0F50DE
:10181A00075A1050085AD89010320F320E320D3231
:10182A000C320B320A320932112ED3D701C001F021
:10183A0002C002F003C003F004C004F005C005F0C2
:10184A0006C006F007C007F008C008F01200000141
:10185A0064A10AD01CC013F01DC014F01AC015F000
:10186A001BC016F067EC0DF01FBE05D01EC023F09A
:10187A001FC024F004D0000E246E000E236E000E4A
:10188A00226E000E216E0CD0000E0B6E200E0A6E18
:10189A001AC00CF01BC00DF06DEC0CF0214A222A84
:1018AA002350215C2250800A206E2450800A20583E
:1018BA00D8A0EAD7000164B112001CC013F01DC001
:1018CA0014F01AC015F01BC016F067EC0DF01200E8
:1018DA000C500D10D8B404D00C500D10D8A404D05C
:1018EA000A5040EC0EF0120020EE09F00C50D926F6
:1018FA000D50DA22DE50DE10D8B416D020EE09F0F0
:10190A000C50D9260D50DA2210EE03F00C50E126C5
:10191A000D50E222DE50E65CE650800A126EDE507E
:10192A00800A1258D8B0120020EE03F00C50D926C3
:10193A000D50DA22DE2A000EDD2212000B6E000E96
:10194A00016E00019951D4EC0CF014D00B507F0FAA
:10195A0037EC0EF012000B50BF0F37EC0EF01200EE
:10196A000B50930F37EC0EF012000B50D30F37ECDD
:10197A000EF012000850096E0A6A0A50000AD8A42A
:10198A0012000950010AD8B4E1D7030AD8B4E3D740
:10199A00010AD8B4E5D7070AD8A41200E6D7056E1B
:1019AA000150D8B411D005C002F0010E036E022A0C
:1019BA0002D0D8900336022EFCD792C0D9FF93C02A
:1019CA00DAFF0350DF12120005C002F0010E036EA7
:1019DA00022A02D0D8900336022EFCD70350FF0AFF
:1019EA00046E92C0D9FF93C0DAFF0450DF161200CA
:1019FA00010E016E00019951D4EC0CF0000E0C6E30
:101A0A000FD00C5008240A6E000E09200B6E0AC073
:101A1A00F6FF0BC0F7FF0800F55037EC0EF00C2A62
:101A2A000C5008240A6E000E09200B6E0AC0F6FF3D
:101A3A000BC0F7FF0800F5500009D8B41200E1D72F
:101A4A0088C05BF089C05CF00ED086C045F087C0C4
:101A5A0046F05B0E476E000E486E8AC049F08BC096
:101A6A004AF00DEC08F05BC0F6FF5CC0F7FF080017
:101A7A00F5500009D8A4E9D7000E0001876F000EBF
:101A8A00866F1200066E0650010B016E0001975117
:101A9A00D4EC0CF00650020B016E00019651D4EC06
:101AAA000CF00650040B016E00019551D4EC0CF0B9
:101ABA000650080B016E00019451D4EC0CF0B7ECFF
:101ACA000DF01200000E196E000E186E0BD017C022
:101ADA000AF00B6A15C00CF016C00DF06DEC0CF094
:101AEA00184A192A18501324D96E19501420DA6E7C
:101AFA00DF50176E1750D8B41200E9D78A0EF66E67
:101B0A001C0EF76E000EF86E00EE9AF010EE04F05E
:101B1A000900F5CFEEFFE550E150FAE100EE60F082
:101B2A00260EEE6AE806FDE1000EF86E00018EEF61
:101B3A000AF0010E056E200E01180210D8B40ED05C
:101B4A00F70E0124036EFF0E0220046E045004E116
:101B5A00050E035CD8A002D0000E056E05C001F088
:101B6A00026A1200000E016E00019851D4EC0CF0CA
:101B7A0000D0010E016E00019851D4EC0CF000D097
:101B8A00000E016E00019851D4EC0CF0420EE82EC2
:101B9A00FED700D012008E0E5D6E000E5E6E000E35
:101BAA000001866F000E876F8CC088F08DC089F0A7
:101BBA005D0E8A6F000E8B6F25EC0DF0120001503E
:101BCA000302F3CF05F0F4CF06F001500402F350FC
:101BDA00062602500302F350062605C001F006C08D
:101BEA0002F01200D00E0124036EFF0E0220046ED2
:101BFA00045006E10A0E035CD8B002D0010E01D0EF
:101C0A00000E016E026A1200000E016E0001995167
:101C1A00D4EC0CF0010E37EC0EF0060E086E300E06
:101C2A00E82EFED7082EFCD700D0120001C092F091
:101C3A0002C093F003C099F004C098F005C097F071
:101C4A0006C096F007C095F008C094F01200086E1E
:101C5A00010E016E00019951D4EC0CF0085037ECDA
:101C6A000EF01200076E07380F0B47EC0DF0075005
:101C7A0047EC0DF01200096E09502CEC0EF0120020
:041C8A0000127A00CA
:020000040030CA
:0E000000FFE8183CFF3F81FF0FC00FE00F40EC
:00000001FF
