:04000000FEEF7FF0A0
:101000000050494331384634364B3432204D435535
:10101000202B00506F74656E74696F6D6574657216
:1010200020313A00506F74656E74696F6D65746538
:101030007220323A0032307834204C4344204578D4
:10104000616D706C65004D6963726F6368697020D3
:101050004D504C41420058433820436F6D70696CCD
:101060006572004C494E452031004C494E452032B6
:10107000004C494E452033004C494E452034002554
:10108000752020200000600E3901D96F030EDF6F3C
:10109000000EC56E000E3A01706FBD0E016E3F0E60
:1010A000026E000E036E010E046E020E056E030E3C
:1010B000066E040E076E050E086EBAEC0EF0040EF6
:1010C000096E140ED7EC0BF0010E7DEC0EF0010E44
:1010D000086E010EFAEC0CF0010E086E100E096E8F
:1010E000ACEC0DF0150E00018F6F4B0E8E6FBE0E27
:1010F000E82EFED78E2FFCD78F2FFAD700F0020EE6
:10110000086E010EFAEC0CF0350E086E100E096E2A
:10111000ACEC0DF0150E00018F6F4B0E8E6FBE0EF6
:10112000E82EFED78E2FFCD78F2FFAD700F0030EB4
:10113000086E010EFAEC0CF0460E086E100E096EE9
:10114000ACEC0DF0150E00018F6F4B0E8E6FBE0EC6
:10115000E82EFED78E2FFCD78F2FFAD700F0040E83
:10116000086E010EFAEC0CF0560E086E100E096EA9
:10117000ACEC0DF0330E00018F6FBB0E8E6FDF0EE7
:10118000E82EFED78E2FFCD78F2FFAD700D0A9ECF0
:101190000EF0010E086E070EFAEC0CF0630E086EEE
:1011A000100E096EACEC0DF0150E00018F6F4B0E9A
:1011B0008E6FBE0EE82EFED78E2FFCD78F2FFAD75C
:1011C00000F0020E086E070EFAEC0CF06A0E086EC4
:1011D000100E096EACEC0DF0150E00018F6F4B0E6A
:1011E0008E6FBE0EE82EFED78E2FFCD78F2FFAD72C
:1011F00000F0030E086E070EFAEC0CF0710E086E8C
:10120000100E096EACEC0DF0150E00018F6F4B0E39
:101210008E6FBE0EE82EFED78E2FFCD78F2FFAD7FB
:1012200000F0040E086E070EFAEC0CF0780E086E53
:10123000100E096EACEC0DF0330E00018F6FBB0E7B
:101240008E6FDF0EE82EFED78E2FFCD78F2FFAD7AA
:1012500000D0000E7DEC0EF0A9EC0EF03E01F8512E
:10126000F30B0409F86FF889F88F010E086E010E70
:10127000FAEC0CF0130E086E100E096EACEC0DF0CB
:10128000030E086E010EFAEC0CF0240E086E100E20
:10129000096EACEC0DF0000E3E01F16F060EE82E6B
:1012A000FED700D03E01F881F8B159EF09F05BEFAD
:1012B00009F054EF09F0F05100018E6F3E01EF513B
:1012C0000001906F8EC091F0010E3E01F16F060E8D
:1012D000E82EFED700D03E01F881F8B172EF09F098
:1012E00074EF09F06DEF09F0F05100018E6F3E01CF
:1012F000EF510001926F8EC093F0020E086E010E46
:10130000FAEC0CF07F0E0001886F100E896F90C010
:101310008AF091C08BF095EC0EF0040E086E010E71
:10132000FAEC0CF07F0E0001886F100E896F92C0EE
:101330008AF093C08BF095EC0EF0050E00018F6FD4
:101340000F0E8E6FF10EE82EFED78E2FFCD78F2F4B
:10135000FAD74BEF09F0FEEF7FF0000163BFBBEF60
:1013600009F0635106E16205D8B0B9EF09F0BBEFAF
:1013700009F0C1EF09F0000E3A6E010E396EC5EFAB
:1013800009F062C039F063C03AF060C037F061C064
:1013900038F027C03BF028C03CF029C03DF02AC0FF
:1013A0003EF02BC03FF02CC040F02DC041F02EC0CD
:1013B00042F0000E446E1F0E436E000E856F57EF15
:1013C0000AF04306D8A04406660E4324D96E000EE8
:1013D0004420DA6E3BC001F03CC002F03DC003F097
:1013E0003EC004F03FC005F040C006F041C007F029
:1013F00042C008F00A0E096E000E0A6E000E0B6E57
:10140000000E0C6E000E0D6E000E0E6E000E0F6EB6
:10141000000E106E47EC0CF001C02FF002C030F04F
:1014200003C031F004C032F005C033F006C034F020
:1014300007C035F008C036F02F50300FDF6E390688
:10144000D8A03A063706D8A038063BC001F03CC009
:1014500002F03DC003F03EC004F03FC005F040C0C4
:1014600006F041C007F042C008F00A0E096E000EF7
:101470000A6E000E0B6E000E0C6E000E0D6E000E4E
:101480000E6E000E0F6E000E106E5FEC0BF001C0C2
:101490003BF002C03CF003C03DF004C03EF005C08C
:1014A0003FF006C040F007C041F008C042F0435092
:1014B0004410D8B45EEF0AF060EF0AF07CEF0AF057
:1014C0003B503C103D103E103F1040104110421068
:1014D000D8A46DEF0AF06FEF0AF0E1EF09F03ABE21
:1014E0007CEF0AF03A5006E13904D8B07AEF0AF0FE
:1014F0007CEF0AF0E1EF09F025C01AF026C01BF0DE
:10150000660E43241C6E000E44201D6E37C01EF074
:1015100038C01FF038EC0DF0120060001FF1D9FF49
:10152000600023F1DAFF6F007BFFF6FF6F0077FFAB
:10153000F7FF0800F550250AD8A4A1EF0AF0A3EFA1
:101540000AF046EF0BF060001FF1D9FF600023F1B5
:10155000DAFFDE2A000EDD22000E0001616F000EB0
:10156000606F60C064F06269636960001FF1D9FF59
:10157000600023F1DAFF6F0078FF57F06F0074FF0F
:1015800058F060005FF1F6FF600063F1F7FF0800BC
:10159000F550750AD8A4CFEF0AF0D1EF0AF03BEF6F
:1015A0000BF0600027F1D9FF60002BF1DAFF6F002C
:1015B0007CFF4BF0020EDE266F007CFF4CF0000E2D
:1015C000DD2260002FF1D9FF600033F1DAFF6F00F8
:1015D00078FF4DF06F0074FF4EF04DC04FF04EC0DD
:1015E00050F0516A526A536A546A556A566A010E3B
:1015F00057244B6E000E58204C6E60001FF1D9FF2F
:10160000600023F1DAFF60002FF1DEFF600033F1AC
:10161000DDFF23EF0BF045C025F046C026F04FC09C
:1016200027F050C028F051C029F052C02AF053C012
:101630002BF054C02CF055C02DF056C02EF0ADEC60
:1016400009F05EEF0BF060005FF1F6FF600063F100
:10165000F7FF0800F5504B6E4C6A4C50000AD8B4A6
:1016600034EF0BF03BEF0BF04B50750AD8B40BEF97
:101670000BF03BEF0BF060001FF1D9FF600023F18E
:10168000DAFFDE2A000EDD225EEF0BF060001FF1B4
:10169000D9FF600023F1DAFF6F007BFFF6FF6F00D8
:1016A00077FFF7FF0800F5500A6E0B6A45C00CF093
:1016B00046C00DF0AFEC0CF03BEF0BF0120020EE4B
:1016C00011F0070EDE6AE806FDE209500A100B1061
:1016D0000C100D100E100F101010D8B472EF0BF08C
:1016E00074EF0BF0C6EF0BF0010E196E82EF0BF0EA
:1016F000D89009360A360B360C360D360E360F36B4
:101700001036192A10AE87EF0BF089EF0BF078EF47
:101710000BF0D890113612361336143615361636AD
:10172000173618360950015C0A5002580B500358FE
:101730000C5004580D5005580E5006580F500758BD
:1017400010500858D8A0A7EF0BF0A9EF0BF0BAEF94
:101750000BF00950015E0A50025A0B50035A0C500C
:10176000045A0D50055A0E50065A0F50075A105081
:10177000085A1180D89010320F320E320D320C32CE
:101780000B320A320932192E89EF0BF011C001F029
:1017900012C002F013C003F014C004F015C005F02D
:1017A00016C006F017C007F018C008F01200200E8F
:1017B0000C6E000E016E5F5075EC0DF0000E016EA8
:1017C00000019A5175EC0DF0000E016E0001995167
:1017D00075EC0DF0000E016E0001985175EC0DF0E6
:1017E000000E016E0001975175EC0DF0000E016EB8
:1017F0000001965175EC0DF0150E0B6E4B0E0A6E36
:10180000BE0EE82EFED70A2EFCD70B2EFAD700D03C
:10181000010E09640EEF0CF010EF0CF011EF0CF05C
:101820000C86030E28EC0EF00D0E0A6EFC0EE82E50
:10183000FED70A2EFCD7030E28EC0EF0850EE82EFC
:10184000FED700F0030E28EC0EF0420EE82EFED775
:1018500000D0020E28EC0EF0420EE82EFED700D08B
:101860000C50D5EC0EF00C0ED5EC0EF0A9EC0EF0F1
:10187000060ED5EC0EF0060E0A6E300EE82EFED7E0
:101880000A2EFCD700D00C0E0001656F1200095023
:101890000A100B100C100D100E100F101010D8B4F1
:1018A00054EF0CF056EF0CF09EEF0CF0010E116EA1
:1018B00064EF0CF0D89009360A360B360C360D362C
:1018C0000E360F361036112A10AE69EF0CF06BEFA2
:1018D0000CF05AEF0CF00950015C0A5002580B5002
:1018E00003580C5004580D5005580E5006580F5010
:1018F000075810500858D8A080EF0CF082EF0CF079
:1019000092EF0CF00950015E0A50025A0B50035A34
:101910000C50045A0D50055A0E50065A0F50075AD3
:101920001050085AD89010320F320E320D320C324D
:101930000B320A320932112E6BEF0CF001C001F0AC
:1019400002C002F003C003F004C004F005C005F0BB
:1019500006C006F007C007F008C008F012000C50DF
:101960000D10D8B4B6EF0CF0B8EF0CF0C1EF0CF0DE
:101970000C500D10D8A4BFEF0CF0C1EF0CF0C6EF67
:101980000CF00A50DEEC0EF0F9EF0CF020EE09F04E
:101990000C50D9260D50DA22DE50DE10D8B4D3EF29
:1019A0000CF0D5EF0CF0F0EF0CF020EE09F00C503D
:1019B000D9260D50DA2210EE03F00C50E1260D501E
:1019C000E222DE50E65CE650800A126EDE50800AAB
:1019D0001258D8B0EEEF0CF0F0EF0CF0F9EF0CF07D
:1019E00020EE03F00C50D9260D50DA22DE2A000E2C
:1019F000DD2212000B6E000E016E5F5075EC0DF0D3
:101A00001AEF0DF00B507F0FD5EC0EF037EF0DF005
:101A10000B50BF0FD5EC0EF037EF0DF00B50930FBE
:101A2000D5EC0EF037EF0DF00B50D30FD5EC0EF0D8
:101A300037EF0DF00850096E0A6A0A50000AD8B450
:101A400024EF0DF037EF0DF00950010AD8B402EF82
:101A50000DF0030AD8B408EF0DF0010AD8B40EEF68
:101A60000DF0070AD8B414EF0DF037EF0DF01200A7
:101A70001FBE3DEF0DF03FEF0DF045EF0DF01EC026
:101A800023F01FC024F049EF0DF0000E246E000E6D
:101A9000236E000E226E000E216E5BEF0DF0000E25
:101AA0000B6E200E0A6E1AC00CF01BC00DF0AFECCE
:101AB0000CF0214A222A2350215C2250800A206EF9
:101AC0002450800A2058D8A068EF0DF06AEF0DF07E
:101AD0004FEF0DF01CC013F01DC014F01AC015F02C
:101AE0001BC016F006EC0EF01200056E0150D8B4C3
:101AF0007CEF0DF07EEF0DF094EF0DF005C002F0DD
:101B0000010E036E022A87EF0DF0D8900336022EE5
:101B100085EF0DF0600053F2D9FF600057F2DAFF55
:101B20000350DF12ABEF0DF005C002F0010E036EA3
:101B3000022A9DEF0DF0D8900336022E9BEF0DF098
:101B40000350FF0A046E600053F2D9FF600057F2A1
:101B5000DAFF0450DF161200010E016E5F5075ECC3
:101B60000DF0000E0C6EC6EF0DF00C5008240A6E3E
:101B7000000E09200B6E60002BF0F6FF60002FF0C6
:101B8000F7FF0800F550D5EC0EF00C2A0C50082495
:101B90000A6E000E09200B6E60002BF0F6FF60004D
:101BA0002FF0F7FF0800F5500009D8A4DAEF0DF088
:101BB000DCEF0DF0B5EF0DF012005BC086F05CC0FD
:101BC00087F0F1EF0DF059C045F05AC046F0860E8F
:101BD000476E000E486E5DC049F05EC04AF08DEC65
:101BE0000AF060001BF2F6FF60001FF2F7FF08002A
:101BF000F5500009D8A4FFEF0DF001EF0EF0E3EF70
:101C00000DF0000E5A6E000E596E1200000E196E85
:101C1000000E186E17EF0EF017C00AF00B6A15C011
:101C20000CF016C00DF0AFEC0CF0184A192A185041
:101C30001324D96E19501420DA6EDF50176E175026
:101C4000D8A425EF0EF027EF0EF00CEF0EF01200E7
:101C5000066E0650010B016E0001995175EC0DF0F6
:101C60000650020B016E0001985175EC0DF0065004
:101C7000040B016E0001975175EC0DF00650080B36
:101C8000016E0001965175EC0DF064EC0EF012003F
:101C9000C60EF66E1D0EF76E000EF86E00EE9BF08F
:101CA00010EE04F009006F00D7FFEEFFE550E150A1
:101CB000F9E100EE60F0260EEE6AE806FDE1000EA6
:101CC000F86E000143EF08F0000E016E00019A511A
:101CD00075EC0DF000D0010E016E00019A5175EC0B
:101CE0000DF000D0000E016E00019A5175EC0DF060
:101CF000420EE82EFED700D01200086E000E016ED4
:101D00005F5075EC0DF00850D8B489EF0EF08BEFF2
:101D10000EF08FEF0EF00001658191EF0EF00001E3
:101D200065916551D5EC0EF012008A0E00018C6FA2
:101D3000000E8D6F000E596E000E5A6E88C05BF05B
:101D400089C05CF08C0E5D6E000E5E6EDDEC0DF0F9
:101D50001200000E016E5F5075EC0DF0010ED5EC17
:101D60000EF0060E086E300EE82EFED7082EFCD7B9
:101D700000D0120001C094F002C095F003C05FF0E3
:101D800004C09AF005C099F006C098F007C097F01B
:101D900008C096F01200086E010E016E5F5075ECDF
:101DA0000DF00850D5EC0EF01200076E07380F0B3F
:101DB00028EC0EF0075028EC0EF01200096E0950C6
:0A1DC000CBEC0EF0120000127A00C6
:04FFFC0048EF0EF0CC
:020000040020DA
:10000000FF0FFF0FFF0FFF0FFF0FFF0FFF0FFF0F80
:020000040030CA
:0A0000008CDD26E780C0FFDFFFFF64
:00000001FF
